{
  "contractName": "CharityPlatform",
  "abi": [
    {
      "inputs": [],
      "payable": false,
      "stateMutability": "nonpayable",
      "type": "constructor",
      "signature": "constructor"
    },
    {
      "constant": false,
      "inputs": [
        {
          "name": "_title",
          "type": "string"
        },
        {
          "name": "_description",
          "type": "string"
        },
        {
          "name": "_imgHash",
          "type": "string"
        },
        {
          "name": "_minorityProofHash",
          "type": "string"
        },
        {
          "name": "_targetFund",
          "type": "uint256"
        }
      ],
      "name": "addMission",
      "outputs": [
        {
          "name": "success",
          "type": "bool"
        }
      ],
      "payable": false,
      "stateMutability": "nonpayable",
      "type": "function",
      "signature": "0xd2e66654"
    },
    {
      "constant": false,
      "inputs": [
        {
          "name": "BCPAddr",
          "type": "address"
        },
        {
          "name": "_missionID",
          "type": "uint256"
        },
        {
          "name": "tokens",
          "type": "uint256"
        }
      ],
      "name": "donateMission",
      "outputs": [
        {
          "name": "success",
          "type": "bool"
        }
      ],
      "payable": false,
      "stateMutability": "nonpayable",
      "type": "function",
      "signature": "0x1e238b68"
    },
    {
      "constant": false,
      "inputs": [
        {
          "name": "BCPAddr",
          "type": "address"
        },
        {
          "name": "LIPAddr",
          "type": "address"
        }
      ],
      "name": "closeMission",
      "outputs": [
        {
          "name": "success",
          "type": "bool"
        }
      ],
      "payable": false,
      "stateMutability": "nonpayable",
      "type": "function",
      "signature": "0x3cb1fa7a"
    },
    {
      "constant": true,
      "inputs": [],
      "name": "getMission",
      "outputs": [
        {
          "name": "",
          "type": "uint256"
        },
        {
          "name": "",
          "type": "string"
        },
        {
          "name": "",
          "type": "string"
        },
        {
          "name": "",
          "type": "string"
        },
        {
          "name": "",
          "type": "string"
        },
        {
          "name": "",
          "type": "uint256"
        },
        {
          "name": "",
          "type": "uint256"
        },
        {
          "name": "",
          "type": "address"
        }
      ],
      "payable": false,
      "stateMutability": "view",
      "type": "function",
      "signature": "0x130e0906"
    },
    {
      "constant": true,
      "inputs": [
        {
          "name": "_missionID",
          "type": "uint256"
        }
      ],
      "name": "getMissionById",
      "outputs": [
        {
          "name": "",
          "type": "uint256"
        },
        {
          "name": "",
          "type": "string"
        },
        {
          "name": "",
          "type": "string"
        },
        {
          "name": "",
          "type": "string"
        },
        {
          "name": "",
          "type": "string"
        },
        {
          "name": "",
          "type": "uint256"
        },
        {
          "name": "",
          "type": "uint256"
        },
        {
          "name": "",
          "type": "address"
        }
      ],
      "payable": false,
      "stateMutability": "view",
      "type": "function",
      "signature": "0x16cc67e5"
    },
    {
      "constant": true,
      "inputs": [
        {
          "name": "_missionID",
          "type": "uint256"
        }
      ],
      "name": "escrowInfo",
      "outputs": [
        {
          "name": "",
          "type": "address"
        }
      ],
      "payable": false,
      "stateMutability": "view",
      "type": "function",
      "signature": "0x83560525"
    }
  ],
  "bytecode": "0x608060405234801561001057600080fd5b506000808190555060026001819055506123b48061002f6000396000f3fe608060405260043610610078576000357c0100000000000000000000000000000000000000000000000000000000900463ffffffff168063130e09061461007d57806316cc67e5146102995780631e238b68146104d95780633cb1fa7a1461055657806383560525146105df578063d2e666541461065a575b600080fd5b34801561008957600080fd5b50610092610909565b60405180898152602001806020018060200180602001806020018881526020018781526020018673ffffffffffffffffffffffffffffffffffffffff1673ffffffffffffffffffffffffffffffffffffffff16815260200185810385528c818151815260200191508051906020019080838360005b83811015610122578082015181840152602081019050610107565b50505050905090810190601f16801561014f5780820380516001836020036101000a031916815260200191505b5085810384528b818151815260200191508051906020019080838360005b8381101561018857808201518184015260208101905061016d565b50505050905090810190601f1680156101b55780820380516001836020036101000a031916815260200191505b5085810383528a818151815260200191508051906020019080838360005b838110156101ee5780820151818401526020810190506101d3565b50505050905090810190601f16801561021b5780820380516001836020036101000a031916815260200191505b50858103825289818151815260200191508051906020019080838360005b83811015610254578082015181840152602081019050610239565b50505050905090810190601f1680156102815780820380516001836020036101000a031916815260200191505b509c5050505050505050505050505060405180910390f35b3480156102a557600080fd5b506102d2600480360360208110156102bc57600080fd5b8101908080359060200190929190505050610cba565b60405180898152602001806020018060200180602001806020018881526020018781526020018673ffffffffffffffffffffffffffffffffffffffff1673ffffffffffffffffffffffffffffffffffffffff16815260200185810385528c818151815260200191508051906020019080838360005b83811015610362578082015181840152602081019050610347565b50505050905090810190601f16801561038f5780820380516001836020036101000a031916815260200191505b5085810384528b818151815260200191508051906020019080838360005b838110156103c85780820151818401526020810190506103ad565b50505050905090810190601f1680156103f55780820380516001836020036101000a031916815260200191505b5085810383528a818151815260200191508051906020019080838360005b8381101561042e578082015181840152602081019050610413565b50505050905090810190601f16801561045b5780820380516001836020036101000a031916815260200191505b50858103825289818151815260200191508051906020019080838360005b83811015610494578082015181840152602081019050610479565b50505050905090810190601f1680156104c15780820380516001836020036101000a031916815260200191505b509c5050505050505050505050505060405180910390f35b3480156104e557600080fd5b5061053c600480360360608110156104fc57600080fd5b81019080803573ffffffffffffffffffffffffffffffffffffffff169060200190929190803590602001909291908035906020019092919050505061109f565b604051808215151515815260200191505060405180910390f35b34801561056257600080fd5b506105c56004803603604081101561057957600080fd5b81019080803573ffffffffffffffffffffffffffffffffffffffff169060200190929190803573ffffffffffffffffffffffffffffffffffffffff1690602001909291905050506115f5565b604051808215151515815260200191505060405180910390f35b3480156105eb57600080fd5b506106186004803603602081101561060257600080fd5b8101908080359060200190929190505050611c65565b604051808273ffffffffffffffffffffffffffffffffffffffff1673ffffffffffffffffffffffffffffffffffffffff16815260200191505060405180910390f35b34801561066657600080fd5b506108ef600480360360a081101561067d57600080fd5b810190808035906020019064010000000081111561069a57600080fd5b8201836020820111156106ac57600080fd5b803590602001918460018302840111640100000000831117156106ce57600080fd5b91908080601f016020809104026020016040519081016040528093929190818152602001838380828437600081840152601f19601f8201169050808301925050505050505091929192908035906020019064010000000081111561073157600080fd5b82018360208201111561074357600080fd5b8035906020019184600183028401116401000000008311171561076557600080fd5b91908080601f016020809104026020016040519081016040528093929190818152602001838380828437600081840152601f19601f820116905080830192505050505050509192919290803590602001906401000000008111156107c857600080fd5b8201836020820111156107da57600080fd5b803590602001918460018302840111640100000000831117156107fc57600080fd5b91908080601f016020809104026020016040519081016040528093929190818152602001838380828437600081840152601f19601f8201169050808301925050505050505091929192908035906020019064010000000081111561085f57600080fd5b82018360208201111561087157600080fd5b8035906020019184600183028401116401000000008311171561089357600080fd5b91908080601f016020809104026020016040519081016040528093929190818152602001838380828437600081840152601f19601f82011690508083019250505050505050919291929080359060200190929190505050611d3e565b604051808215151515815260200191505060405180910390f35b6000606080606080600080600061091e612120565b600360003373ffffffffffffffffffffffffffffffffffffffff1673ffffffffffffffffffffffffffffffffffffffff168152602001908152602001600020610100604051908101604052908160008201548152602001600182018054600181600116156101000203166002900480601f016020809104026020016040519081016040528092919081815260200182805460018160011615610100020316600290048015610a0d5780601f106109e257610100808354040283529160200191610a0d565b820191906000526020600020905b8154815290600101906020018083116109f057829003601f168201915b50505050508152602001600282018054600181600116156101000203166002900480601f016020809104026020016040519081016040528092919081815260200182805460018160011615610100020316600290048015610aaf5780601f10610a8457610100808354040283529160200191610aaf565b820191906000526020600020905b815481529060010190602001808311610a9257829003601f168201915b50505050508152602001600382018054600181600116156101000203166002900480601f016020809104026020016040519081016040528092919081815260200182805460018160011615610100020316600290048015610b515780601f10610b2657610100808354040283529160200191610b51565b820191906000526020600020905b815481529060010190602001808311610b3457829003601f168201915b50505050508152602001600482018054600181600116156101000203166002900480601f016020809104026020016040519081016040528092919081815260200182805460018160011615610100020316600290048015610bf35780601f10610bc857610100808354040283529160200191610bf3565b820191906000526020600020905b815481529060010190602001808311610bd657829003601f168201915b5050505050815260200160058201548152602001600682015481526020016007820160009054906101000a900473ffffffffffffffffffffffffffffffffffffffff1673ffffffffffffffffffffffffffffffffffffffff1673ffffffffffffffffffffffffffffffffffffffff16815250509050806000015181602001518260400151836060015184608001518560a001518660c001518760e0015186965085955084945083935080905098509850985098509850985098509850509091929394959697565b60006060806060806000806000610ccf612120565b60036000600260008d815260200190815260200160002060009054906101000a900473ffffffffffffffffffffffffffffffffffffffff1673ffffffffffffffffffffffffffffffffffffffff1673ffffffffffffffffffffffffffffffffffffffff168152602001908152602001600020610100604051908101604052908160008201548152602001600182018054600181600116156101000203166002900480601f016020809104026020016040519081016040528092919081815260200182805460018160011615610100020316600290048015610df15780601f10610dc657610100808354040283529160200191610df1565b820191906000526020600020905b815481529060010190602001808311610dd457829003601f168201915b50505050508152602001600282018054600181600116156101000203166002900480601f016020809104026020016040519081016040528092919081815260200182805460018160011615610100020316600290048015610e935780601f10610e6857610100808354040283529160200191610e93565b820191906000526020600020905b815481529060010190602001808311610e7657829003601f168201915b50505050508152602001600382018054600181600116156101000203166002900480601f016020809104026020016040519081016040528092919081815260200182805460018160011615610100020316600290048015610f355780601f10610f0a57610100808354040283529160200191610f35565b820191906000526020600020905b815481529060010190602001808311610f1857829003601f168201915b50505050508152602001600482018054600181600116156101000203166002900480601f016020809104026020016040519081016040528092919081815260200182805460018160011615610100020316600290048015610fd75780601f10610fac57610100808354040283529160200191610fd7565b820191906000526020600020905b815481529060010190602001808311610fba57829003601f168201915b5050505050815260200160058201548152602001600682015481526020016007820160009054906101000a900473ffffffffffffffffffffffffffffffffffffffff1673ffffffffffffffffffffffffffffffffffffffff1673ffffffffffffffffffffffffffffffffffffffff16815250509050806000015181602001518260400151836060015184608001518560a001518660c001518760e001518696508595508494508393508090509850985098509850985098509850985050919395975091939597565b60003373ffffffffffffffffffffffffffffffffffffffff166002600085815260200190815260200160002060009054906101000a900473ffffffffffffffffffffffffffffffffffffffff1673ffffffffffffffffffffffffffffffffffffffff161415151561110f57600080fd5b81600360006002600087815260200190815260200160002060009054906101000a900473ffffffffffffffffffffffffffffffffffffffff1673ffffffffffffffffffffffffffffffffffffffff1673ffffffffffffffffffffffffffffffffffffffff16815260200190815260200160002060060154600360006002600088815260200190815260200160002060009054906101000a900473ffffffffffffffffffffffffffffffffffffffff1673ffffffffffffffffffffffffffffffffffffffff1673ffffffffffffffffffffffffffffffffffffffff16815260200190815260200160002060050154031015151561120a57600080fd5b818473ffffffffffffffffffffffffffffffffffffffff166370a08231336040518263ffffffff167c0100000000000000000000000000000000000000000000000000000000028152600401808273ffffffffffffffffffffffffffffffffffffffff1673ffffffffffffffffffffffffffffffffffffffff16815260200191505060206040518083038186803b1580156112a457600080fd5b505afa1580156112b8573d6000803e3d6000fd5b505050506040513d60208110156112ce57600080fd5b8101908080519060200190929190505050101515156112ec57600080fd5b8373ffffffffffffffffffffffffffffffffffffffff16632126aa09336006600087815260200190815260200160002060009054906101000a900473ffffffffffffffffffffffffffffffffffffffff16856040518463ffffffff167c0100000000000000000000000000000000000000000000000000000000028152600401808473ffffffffffffffffffffffffffffffffffffffff1673ffffffffffffffffffffffffffffffffffffffff1681526020018373ffffffffffffffffffffffffffffffffffffffff1673ffffffffffffffffffffffffffffffffffffffff1681526020018281526020019350505050602060405180830381600087803b1580156113f657600080fd5b505af115801561140a573d6000803e3d6000fd5b505050506040513d602081101561142057600080fd5b81019080805190602001909291905050505081600360006002600087815260200190815260200160002060009054906101000a900473ffffffffffffffffffffffffffffffffffffffff1673ffffffffffffffffffffffffffffffffffffffff1673ffffffffffffffffffffffffffffffffffffffff16815260200190815260200160002060080160003373ffffffffffffffffffffffffffffffffffffffff1673ffffffffffffffffffffffffffffffffffffffff1681526020019081526020016000208190555061157182600360006002600088815260200190815260200160002060009054906101000a900473ffffffffffffffffffffffffffffffffffffffff1673ffffffffffffffffffffffffffffffffffffffff1673ffffffffffffffffffffffffffffffffffffffff168152602001908152602001600020600601546120b390919063ffffffff16565b600360006002600087815260200190815260200160002060009054906101000a900473ffffffffffffffffffffffffffffffffffffffff1673ffffffffffffffffffffffffffffffffffffffff1673ffffffffffffffffffffffffffffffffffffffff16815260200190815260200160002060060181905550600190509392505050565b60003373ffffffffffffffffffffffffffffffffffffffff1660026000600460003373ffffffffffffffffffffffffffffffffffffffff1673ffffffffffffffffffffffffffffffffffffffff16815260200190815260200160002054815260200190815260200160002060009054906101000a900473ffffffffffffffffffffffffffffffffffffffff1673ffffffffffffffffffffffffffffffffffffffff161415156116a357600080fd5b600060066000600460003373ffffffffffffffffffffffffffffffffffffffff1673ffffffffffffffffffffffffffffffffffffffff16815260200190815260200160002054815260200190815260200160002060009054906101000a900473ffffffffffffffffffffffffffffffffffffffff16905060008473ffffffffffffffffffffffffffffffffffffffff166370a08231836040518263ffffffff167c0100000000000000000000000000000000000000000000000000000000028152600401808273ffffffffffffffffffffffffffffffffffffffff1673ffffffffffffffffffffffffffffffffffffffff16815260200191505060206040518083038186803b1580156117b557600080fd5b505afa1580156117c9573d6000803e3d6000fd5b505050506040513d60208110156117df57600080fd5b810190808051906020019092919050505090508473ffffffffffffffffffffffffffffffffffffffff16632126aa098387846040518463ffffffff167c0100000000000000000000000000000000000000000000000000000000028152600401808473ffffffffffffffffffffffffffffffffffffffff1673ffffffffffffffffffffffffffffffffffffffff1681526020018373ffffffffffffffffffffffffffffffffffffffff1673ffffffffffffffffffffffffffffffffffffffff1681526020018281526020019350505050602060405180830381600087803b1580156118c957600080fd5b505af11580156118dd573d6000803e3d6000fd5b505050506040513d60208110156118f357600080fd5b81019080805190602001909291905050505061195a81600360003373ffffffffffffffffffffffffffffffffffffffff1673ffffffffffffffffffffffffffffffffffffffff168152602001908152602001600020600601546120d490919063ffffffff16565b600360003373ffffffffffffffffffffffffffffffffffffffff1673ffffffffffffffffffffffffffffffffffffffff168152602001908152602001600020600601819055506119b5600154826120f690919063ffffffff16565b8473ffffffffffffffffffffffffffffffffffffffff166370a08231876040518263ffffffff167c0100000000000000000000000000000000000000000000000000000000028152600401808273ffffffffffffffffffffffffffffffffffffffff1673ffffffffffffffffffffffffffffffffffffffff16815260200191505060206040518083038186803b158015611a4e57600080fd5b505afa158015611a62573d6000803e3d6000fd5b505050506040513d6020811015611a7857600080fd5b810190808051906020019092919050505010151515611a9657600080fd5b8373ffffffffffffffffffffffffffffffffffffffff16632126aa098633611ac9600154866120f690919063ffffffff16565b6040518463ffffffff167c0100000000000000000000000000000000000000000000000000000000028152600401808473ffffffffffffffffffffffffffffffffffffffff1673ffffffffffffffffffffffffffffffffffffffff1681526020018373ffffffffffffffffffffffffffffffffffffffff1673ffffffffffffffffffffffffffffffffffffffff1681526020018281526020019350505050602060405180830381600087803b158015611b8157600080fd5b505af1158015611b95573d6000803e3d6000fd5b505050506040513d6020811015611bab57600080fd5b810190808051906020019092919050505050611c136000600360003373ffffffffffffffffffffffffffffffffffffffff1673ffffffffffffffffffffffffffffffffffffffff168152602001908152602001600020600601546120d490919063ffffffff16565b600360003373ffffffffffffffffffffffffffffffffffffffff1673ffffffffffffffffffffffffffffffffffffffff1681526020019081526020016000206006018190555060019250505092915050565b60006006600083815260200190815260200160002060009054906101000a900473ffffffffffffffffffffffffffffffffffffffff1673ffffffffffffffffffffffffffffffffffffffff1663f3d259046040518163ffffffff167c010000000000000000000000000000000000000000000000000000000002815260040160206040518083038186803b158015611cfc57600080fd5b505afa158015611d10573d6000803e3d6000fd5b505050506040513d6020811015611d2657600080fd5b81019080805190602001909291905050509050919050565b600060011515600560003373ffffffffffffffffffffffffffffffffffffffff1673ffffffffffffffffffffffffffffffffffffffff16815260200190815260200160002060009054906101000a900460ff16151514151515611da057600080fd5b6000808154809291906001019190505550611db9612120565b610100604051908101604052806000548152602001888152602001878152602001868152602001858152602001848152602001600081526020013373ffffffffffffffffffffffffffffffffffffffff16815250905080600360003373ffffffffffffffffffffffffffffffffffffffff1673ffffffffffffffffffffffffffffffffffffffff168152602001908152602001600020600082015181600001556020820151816001019080519060200190611e7592919061217c565b506040820151816002019080519060200190611e9292919061217c565b506060820151816003019080519060200190611eaf92919061217c565b506080820151816004019080519060200190611ecc92919061217c565b5060a0820151816005015560c0820151816006015560e08201518160070160006101000a81548173ffffffffffffffffffffffffffffffffffffffff021916908373ffffffffffffffffffffffffffffffffffffffff16021790555090505033600260008054815260200190815260200160002060006101000a81548173ffffffffffffffffffffffffffffffffffffffff021916908373ffffffffffffffffffffffffffffffffffffffff160217905550600054600460003373ffffffffffffffffffffffffffffffffffffffff1673ffffffffffffffffffffffffffffffffffffffff168152602001908152602001600020819055506001600560003373ffffffffffffffffffffffffffffffffffffffff1673ffffffffffffffffffffffffffffffffffffffff16815260200190815260200160002060006101000a81548160ff021916908315150217905550600080546120286121fc565b80828152602001915050604051809103906000f08015801561204e573d6000803e3d6000fd5b50905080600660008054815260200190815260200160002060006101000a81548173ffffffffffffffffffffffffffffffffffffffff021916908373ffffffffffffffffffffffffffffffffffffffff16021790555060019250505095945050505050565b60008082840190508381101515156120ca57600080fd5b8091505092915050565b60008282111515156120e557600080fd5b600082840390508091505092915050565b6000808211151561210657600080fd5b6000828481151561211357fe5b0490508091505092915050565b6101006040519081016040528060008152602001606081526020016060815260200160608152602001606081526020016000815260200160008152602001600073ffffffffffffffffffffffffffffffffffffffff1681525090565b828054600181600116156101000203166002900490600052602060002090601f016020900481019282601f106121bd57805160ff19168380011785556121eb565b828001600101855582156121eb579182015b828111156121ea5782518255916020019190600101906121cf565b5b5090506121f8919061220c565b5090565b6040516101578061223283390190565b61222e91905b8082111561222a576000816000905550600101612212565b5090565b9056fe60806040526040516020806101578339810180604052602081101561002357600080fd5b810190808051906020019092919050505033600260006101000a81548173ffffffffffffffffffffffffffffffffffffffff021916908373ffffffffffffffffffffffffffffffffffffffff160217905550806000819055505060cc8061008b6000396000f3fe608060405260043610603f576000357c0100000000000000000000000000000000000000000000000000000000900463ffffffff168063f3d25904146044575b600080fd5b348015604f57600080fd5b5060566098565b604051808273ffffffffffffffffffffffffffffffffffffffff1673ffffffffffffffffffffffffffffffffffffffff16815260200191505060405180910390f35b60003090509056fea165627a7a723058209c8cf1cfb53d5fd0ddaecd760a716f97ad3209f86c4d66a523f3aad6bdf582d10029a165627a7a723058205d585f0b72d2192375906e2191edc3ae7bbf97f969ea5c3f3332749d4f2d1be40029",
  "source": "pragma solidity ^0.5.0;\n\nimport \"./lib/SafeMath.sol\";\nimport \"./lib/ERC20ProInterface.sol\";\nimport \"./Escrow.sol\";\n\n\ncontract CharityPlatform{\n    using SafeMath for uint;\n    \n    uint internal missionIndex;\n    uint internal exchangeRate;\n    mapping(uint => address) missionIdxList; // missionID -> missionOwnerAddr\n    mapping(address => Mission) missonList; // missionOwnerAddr -> Mission\n    mapping(address => uint) ownerToMissionId; // ownerAddr -> missionID\n    mapping(address => bool) appliedMissionList; // ownerAddr -> bool\n    \n    mapping(uint => address) escrowMissionList; // missionID -> escrowAddr \n    \n    struct Mission {\n        uint id;\n        string title;\n        string description;\n        string imgHash;\n        string minorityHash;\n        uint targetFund;\n        uint fundedAmount;\n        address payable ownerAddr;\n        mapping(address => uint) ledger;\n    }\n    \n    constructor() public {\n        missionIndex = 0;\n        exchangeRate = 2;\n    }\n    \n    // Add New Mission\n    function addMission(\n        string memory _title, \n        string memory _description,\n        string memory _imgHash,\n        string memory _minorityProofHash,\n        uint _targetFund) public returns (bool success) {\n        // Check whether msg.sender has had already applied for mission\n        require(appliedMissionList[msg.sender] != true);\n        \n        // Create New Mission\n        missionIndex ++;\n        Mission memory mission = Mission(missionIndex, _title, _description, _imgHash,  _minorityProofHash, _targetFund, 0, msg.sender);\n        missonList[msg.sender] = mission;\n        missionIdxList[missionIndex] = msg.sender;\n        ownerToMissionId[msg.sender] = missionIndex;\n        appliedMissionList[msg.sender] = true;\n\n        // Create Mission Escrow \n        Escrow escrow = new Escrow(missionIndex);\n        escrowMissionList[missionIndex] = address(escrow);\n        return true;\n    }\n    \n\n    // Donate Mission \n    function donateMission(address BCPAddr, uint _missionID, uint tokens) public returns (bool success) {\n        require(missionIdxList[_missionID] != msg.sender);\n        require(missonList[missionIdxList[_missionID]].targetFund - missonList[missionIdxList[_missionID]].fundedAmount >= tokens);\n        \n        // Donation\n        require(ERC20ProInterface(BCPAddr).balanceOf(msg.sender) >= tokens);  // Donator's BCP >= tokens\n        // Transfer BCP from Donator to MissionContractAddress\n        ERC20ProInterface(BCPAddr).transferFromContract(msg.sender, escrowMissionList[_missionID], tokens); \n        \n        missonList[missionIdxList[_missionID]].ledger[msg.sender] = tokens;\n        missonList[missionIdxList[_missionID]].fundedAmount = missonList[missionIdxList[_missionID]].fundedAmount.add(tokens);   \n        return true;\n    }\n\n\n    function closeMission(address BCPAddr, address LIPAddr) public returns (bool success) {\n        require(missionIdxList[ownerToMissionId[msg.sender]] == msg.sender); // only missionOwner can close mission\n        \n        address escrowAddr = escrowMissionList[ownerToMissionId[msg.sender]];\n        uint escrowTotalBCP = ERC20ProInterface(BCPAddr).balanceOf(escrowAddr);\n        ERC20ProInterface(BCPAddr).transferFromContract(escrowAddr, BCPAddr, escrowTotalBCP); \n        \n       // missonList[missionIdxList[_missionID]].ledger[msg.sender] = tokens;\n        missonList[msg.sender].fundedAmount = missonList[msg.sender].fundedAmount.sub(escrowTotalBCP); \n        // Exchage to LIP from BCP.ContractAddress to missionOwner\n        require(ERC20ProInterface(LIPAddr).balanceOf(BCPAddr) >= escrowTotalBCP.div(exchangeRate)); // require BCP have enough LIP to exchange\n        ERC20ProInterface(LIPAddr).transferFromContract(BCPAddr, msg.sender, escrowTotalBCP.div(exchangeRate)); \n        missonList[msg.sender].fundedAmount = missonList[msg.sender].fundedAmount.sub(0); \n        return true;\n    }\n\n\n\n    // Information Function\n    function getMission() public view returns (uint, string memory, string memory, string memory, string memory, uint, uint, address){\n        Mission memory mission = missonList[msg.sender];\n        return (mission.id, mission.title, mission.description, mission.imgHash, mission.minorityHash, mission.targetFund, mission.fundedAmount, mission.ownerAddr);\n    }\n    \n    function getMissionById(uint _missionID) public view returns (uint, string memory, string memory, string memory, string memory, uint, uint, address) {\n        Mission memory mission = missonList[missionIdxList[_missionID]];\n        return (mission.id, mission.title, mission.description, mission.imgHash, mission.minorityHash, mission.targetFund, mission.fundedAmount, mission.ownerAddr);\n    }\n    \n    function escrowInfo(uint _missionID) public view returns(address) {\n        return Escrow(escrowMissionList[_missionID]).escrowInfo();\n    }\n}\n",
  "sourcePath": "/home/chrislu/blockchain/BCP/solidity/contracts/CharityPlatform.sol",
  "compiler": {
    "name": "solc",
    "version": "0.5.0+commit.1d4f565a.Emscripten.clang"
  },
  "schemaVersion": "3.0.2",
  "updatedAt": "2019-06-12T11:59:27.198Z",
  "devdoc": {
    "methods": {}
  },
  "userdoc": {
    "methods": {}
  }
}